{
  "contractName": "EthCalculator",
  "abi": [
    {
      "constant": true,
      "inputs": [
        {
          "name": "lhs",
          "type": "int256"
        },
        {
          "name": "rhs",
          "type": "int256"
        }
      ],
      "name": "mod",
      "outputs": [
        {
          "name": "",
          "type": "int256"
        }
      ],
      "payable": false,
      "stateMutability": "pure",
      "type": "function"
    },
    {
      "constant": true,
      "inputs": [
        {
          "name": "lhs",
          "type": "int256"
        },
        {
          "name": "rhs",
          "type": "int256"
        }
      ],
      "name": "multiply",
      "outputs": [
        {
          "name": "",
          "type": "int256"
        }
      ],
      "payable": false,
      "stateMutability": "pure",
      "type": "function"
    },
    {
      "constant": true,
      "inputs": [
        {
          "name": "lhs",
          "type": "int256"
        },
        {
          "name": "rhs",
          "type": "int256"
        }
      ],
      "name": "add",
      "outputs": [
        {
          "name": "",
          "type": "int256"
        }
      ],
      "payable": false,
      "stateMutability": "pure",
      "type": "function"
    },
    {
      "inputs": [],
      "payable": false,
      "stateMutability": "nonpayable",
      "type": "constructor"
    }
  ],
  "bytecode": "0x6060604052341561000f57600080fd5b336000806101000a81548173ffffffffffffffffffffffffffffffffffffffff021916908373ffffffffffffffffffffffffffffffffffffffff1602179055506101788061005e6000396000f300606060405260043610610057576000357c0100000000000000000000000000000000000000000000000000000000900463ffffffff16806324e289281461005c5780633c4308a81461009c578063a5f3c23b146100dc575b600080fd5b341561006757600080fd5b610086600480803590602001909190803590602001909190505061011c565b6040518082815260200191505060405180910390f35b34156100a757600080fd5b6100c66004808035906020019091908035906020019091905050610132565b6040518082815260200191505060405180910390f35b34156100e757600080fd5b610106600480803590602001909190803590602001909190505061013f565b6040518082815260200191505060405180910390f35b6000818381151561012957fe5b07905092915050565b6000818302905092915050565b60008183019050929150505600a165627a7a72305820cd19f283aa56d0f7727bc666a7066a42574a72a5fe245f84921acd78f1ad220e0029",
  "source": "pragma solidity ^0.4.17;\n\ncontract EthCalculator {\n    address owner;\n\n    function EthCalculator() public {\n        owner = msg.sender;\n    }\n\n    function add(int256 lhs, int256 rhs) pure public returns(int256) {\n        return lhs + rhs;\n    }\n\n    // Implement int256 subtraction here!!! Be sure to follow the format of the other functions.\n    // Be sure to name the function 'subtract'\n    \n\n    function multiply(int256 lhs, int256 rhs) pure public returns(int256){\n        return lhs * rhs;\n    }\n\n    // Implement int256 division here!!! Be sure to follow the format of the other functions.\n    // Be sure to name the function 'divide'. \n\n    function mod(int256 lhs, int256 rhs) pure public returns(int256){\n        return lhs % rhs;\n    }\n}",
  "sourcePath": "/Users/evan/Storage/BadgerBlockchain/Talks/Truffle/Introduction/EthCalculator/contracts/EthCalculator.sol",
  "compiler": {
    "name": "solc",
    "version": "0.4.18+commit.9cf6e910.Emscripten.clang"
  },
  "schemaVersion": "1.0.1",
  "updatedAt": "2017-11-30T07:49:24.550Z"
}